{
  "_format": "hh-sol-artifact-1",
  "contractName": "Buyer",
  "sourceName": "contracts/Buyer.sol",
  "abi": [
    {
      "inputs": [],
      "stateMutability": "payable",
      "type": "constructor"
    },
    {
      "inputs": [
        {
          "internalType": "address",
          "name": "_contracToBuy",
          "type": "address"
        },
        {
          "internalType": "address",
          "name": "_seller",
          "type": "address"
        }
      ],
      "name": "addSellerToPayandContractAddress",
      "outputs": [],
      "stateMutability": "nonpayable",
      "type": "function"
    },
    {
      "inputs": [],
      "name": "approveTobuy",
      "outputs": [],
      "stateMutability": "nonpayable",
      "type": "function"
    },
    {
      "inputs": [],
      "name": "contracToBuy",
      "outputs": [
        {
          "internalType": "address",
          "name": "",
          "type": "address"
        }
      ],
      "stateMutability": "view",
      "type": "function"
    },
    {
      "inputs": [],
      "name": "getOwnership",
      "outputs": [],
      "stateMutability": "payable",
      "type": "function"
    },
    {
      "inputs": [],
      "name": "isApproved",
      "outputs": [
        {
          "internalType": "bool",
          "name": "",
          "type": "bool"
        }
      ],
      "stateMutability": "view",
      "type": "function"
    },
    {
      "inputs": [],
      "name": "owner",
      "outputs": [
        {
          "internalType": "address",
          "name": "",
          "type": "address"
        }
      ],
      "stateMutability": "view",
      "type": "function"
    },
    {
      "inputs": [],
      "name": "sellerToPay",
      "outputs": [
        {
          "internalType": "address",
          "name": "",
          "type": "address"
        }
      ],
      "stateMutability": "view",
      "type": "function"
    }
  ],
  "bytecode": "0x6080604052336000806101000a81548173ffffffffffffffffffffffffffffffffffffffff021916908373ffffffffffffffffffffffffffffffffffffffff160217905550610b0a806100536000396000f3fe6080604052600436106100705760003560e01c80638da5cb5b1161004e5780638da5cb5b146100e2578063a12b07a71461010d578063aacd732114610138578063adbaad061461014257610070565b806318747c581461007557806328f371aa146100a05780637f25a7c3146100cb575b600080fd5b34801561008157600080fd5b5061008a61016b565b6040516100979190610722565b60405180910390f35b3480156100ac57600080fd5b506100b5610191565b6040516100c29190610758565b60405180910390f35b3480156100d757600080fd5b506100e06101a4565b005b3480156100ee57600080fd5b506100f761024f565b6040516101049190610722565b60405180910390f35b34801561011957600080fd5b50610122610273565b60405161012f9190610722565b60405180910390f35b610140610299565b005b34801561014e57600080fd5b50610169600480360381019061016491906107a4565b6105cd565b005b600260009054906101000a900473ffffffffffffffffffffffffffffffffffffffff1681565b600260149054906101000a900460ff1681565b60008054906101000a900473ffffffffffffffffffffffffffffffffffffffff1673ffffffffffffffffffffffffffffffffffffffff163373ffffffffffffffffffffffffffffffffffffffff1614610232576040517f08c379a000000000000000000000000000000000000000000000000000000000815260040161022990610841565b60405180910390fd5b6001600260146101000a81548160ff021916908315150217905550565b60008054906101000a900473ffffffffffffffffffffffffffffffffffffffff1681565b600160009054906101000a900473ffffffffffffffffffffffffffffffffffffffff1681565b600260009054906101000a900473ffffffffffffffffffffffffffffffffffffffff1673ffffffffffffffffffffffffffffffffffffffff163373ffffffffffffffffffffffffffffffffffffffff1614610329576040517f08c379a0000000000000000000000000000000000000000000000000000000008152600401610320906108ad565b60405180910390fd5b60011515600260149054906101000a900460ff1615151461037f576040517f08c379a000000000000000000000000000000000000000000000000000000000815260040161037690610919565b60405180910390fd5b6000600160009054906101000a900473ffffffffffffffffffffffffffffffffffffffff1673ffffffffffffffffffffffffffffffffffffffff1660008054906101000a900473ffffffffffffffffffffffffffffffffffffffff166040516024016103eb9190610722565b6040516020818303038152906040527ff2fde38b000000000000000000000000000000000000000000000000000000007bffffffffffffffffffffffffffffffffffffffffffffffffffffffff19166020820180517bffffffffffffffffffffffffffffffffffffffffffffffffffffffff838183161783525050505060405161047591906109aa565b6000604051808303816000865af19150503d80600081146104b2576040519150601f19603f3d011682016040523d82523d6000602084013e6104b7565b606091505b50509050806104fb576040517f08c379a00000000000000000000000000000000000000000000000000000000081526004016104f290610a0d565b60405180910390fd5b6000600260009054906101000a900473ffffffffffffffffffffffffffffffffffffffff1673ffffffffffffffffffffffffffffffffffffffff164760405161054390610a53565b60006040518083038185875af1925050503d8060008114610580576040519150601f19603f3d011682016040523d82523d6000602084013e610585565b606091505b50509050806105c9576040517f08c379a00000000000000000000000000000000000000000000000000000000081526004016105c090610ab4565b60405180910390fd5b5050565b60008054906101000a900473ffffffffffffffffffffffffffffffffffffffff1673ffffffffffffffffffffffffffffffffffffffff163373ffffffffffffffffffffffffffffffffffffffff161461065b576040517f08c379a000000000000000000000000000000000000000000000000000000000815260040161065290610841565b60405180910390fd5b80600260006101000a81548173ffffffffffffffffffffffffffffffffffffffff021916908373ffffffffffffffffffffffffffffffffffffffff16021790555081600160006101000a81548173ffffffffffffffffffffffffffffffffffffffff021916908373ffffffffffffffffffffffffffffffffffffffff1602179055505050565b600073ffffffffffffffffffffffffffffffffffffffff82169050919050565b600061070c826106e1565b9050919050565b61071c81610701565b82525050565b60006020820190506107376000830184610713565b92915050565b60008115159050919050565b6107528161073d565b82525050565b600060208201905061076d6000830184610749565b92915050565b600080fd5b61078181610701565b811461078c57600080fd5b50565b60008135905061079e81610778565b92915050565b600080604083850312156107bb576107ba610773565b5b60006107c98582860161078f565b92505060206107da8582860161078f565b9150509250929050565b600082825260208201905092915050565b7f4f6e6c792042757965722043616e205365742053656c6c657200000000000000600082015250565b600061082b6019836107e4565b9150610836826107f5565b602082019050919050565b6000602082019050818103600083015261085a8161081e565b9050919050565b7f43616e6e6f742043616c6c656420427920596f75000000000000000000000000600082015250565b60006108976014836107e4565b91506108a282610861565b602082019050919050565b600060208201905081810360008301526108c68161088a565b9050919050565b7f497420486173204e6f74204265656e204170726f766564207965740000000000600082015250565b6000610903601b836107e4565b915061090e826108cd565b602082019050919050565b60006020820190508181036000830152610932816108f6565b9050919050565b600081519050919050565b600081905092915050565b60005b8381101561096d578082015181840152602081019050610952565b60008484015250505050565b600061098482610939565b61098e8185610944565b935061099e81856020860161094f565b80840191505092915050565b60006109b68284610979565b915081905092915050565b7f6661696c656420746f204765744f576e65725368697000000000000000000000600082015250565b60006109f76016836107e4565b9150610a02826109c1565b602082019050919050565b60006020820190508181036000830152610a26816109ea565b9050919050565b50565b6000610a3d600083610944565b9150610a4882610a2d565b600082019050919050565b6000610a5e82610a30565b9150819050919050565b7f6661696c656420746f2050616964000000000000000000000000000000000000600082015250565b6000610a9e600e836107e4565b9150610aa982610a68565b602082019050919050565b60006020820190508181036000830152610acd81610a91565b905091905056fea2646970667358221220fd2870a99f2e0d5534ce52c75d53aeb02484392eefc7ab1ecb562ec0ca88c54a64736f6c63430008130033",
  "linkReferences": {},
  "deployedLinkReferences": {}
}