{
  "_format": "hh-sol-artifact-1",
  "contractName": "Seller",
  "sourceName": "contracts/Seller.sol",
  "abi": [
    {
      "inputs": [],
      "stateMutability": "nonpayable",
      "type": "constructor"
    },
    {
      "inputs": [],
      "name": "buyerContract",
      "outputs": [
        {
          "internalType": "address",
          "name": "",
          "type": "address"
        }
      ],
      "stateMutability": "view",
      "type": "function"
    },
    {
      "inputs": [],
      "name": "owner",
      "outputs": [
        {
          "internalType": "address",
          "name": "",
          "type": "address"
        }
      ],
      "stateMutability": "view",
      "type": "function"
    },
    {
      "inputs": [
        {
          "internalType": "address",
          "name": "_buyer",
          "type": "address"
        }
      ],
      "name": "setBuyerContract",
      "outputs": [],
      "stateMutability": "nonpayable",
      "type": "function"
    },
    {
      "inputs": [
        {
          "internalType": "address",
          "name": "_newOwner",
          "type": "address"
        }
      ],
      "name": "transferOwnership",
      "outputs": [],
      "stateMutability": "payable",
      "type": "function"
    }
  ],
  "bytecode": "0x608060405234801561001057600080fd5b50336000806101000a81548173ffffffffffffffffffffffffffffffffffffffff021916908373ffffffffffffffffffffffffffffffffffffffff1602179055506104a7806100606000396000f3fe60806040526004361061003f5760003560e01c8063401b71e1146100445780638da5cb5b1461006d578063dedfb10414610098578063f2fde38b146100c3575b600080fd5b34801561005057600080fd5b5061006b60048036038101906100669190610331565b6100df565b005b34801561007957600080fd5b506100826101b1565b60405161008f919061036d565b60405180910390f35b3480156100a457600080fd5b506100ad6101d5565b6040516100ba919061036d565b60405180910390f35b6100dd60048036038101906100d89190610331565b6101fb565b005b60008054906101000a900473ffffffffffffffffffffffffffffffffffffffff1673ffffffffffffffffffffffffffffffffffffffff163373ffffffffffffffffffffffffffffffffffffffff161461016d576040517f08c379a0000000000000000000000000000000000000000000000000000000008152600401610164906103e5565b60405180910390fd5b80600160006101000a81548173ffffffffffffffffffffffffffffffffffffffff021916908373ffffffffffffffffffffffffffffffffffffffff16021790555050565b60008054906101000a900473ffffffffffffffffffffffffffffffffffffffff1681565b600160009054906101000a900473ffffffffffffffffffffffffffffffffffffffff1681565b600160009054906101000a900473ffffffffffffffffffffffffffffffffffffffff1673ffffffffffffffffffffffffffffffffffffffff163373ffffffffffffffffffffffffffffffffffffffff161461028b576040517f08c379a000000000000000000000000000000000000000000000000000000000815260040161028290610451565b60405180910390fd5b806000806101000a81548173ffffffffffffffffffffffffffffffffffffffff021916908373ffffffffffffffffffffffffffffffffffffffff16021790555050565b600080fd5b600073ffffffffffffffffffffffffffffffffffffffff82169050919050565b60006102fe826102d3565b9050919050565b61030e816102f3565b811461031957600080fd5b50565b60008135905061032b81610305565b92915050565b600060208284031215610347576103466102ce565b5b60006103558482850161031c565b91505092915050565b610367816102f3565b82525050565b6000602082019050610382600083018461035e565b92915050565b600082825260208201905092915050565b7f4f6e6c792042757965722043616e2043616c6c20546869730000000000000000600082015250565b60006103cf601883610388565b91506103da82610399565b602082019050919050565b600060208201905081810360008301526103fe816103c2565b9050919050565b7f4e6f7420204120436f6e7472616374204f776e65720000000000000000000000600082015250565b600061043b601583610388565b915061044682610405565b602082019050919050565b6000602082019050818103600083015261046a8161042e565b905091905056fea2646970667358221220a6d622da249fca29d4239d684a826c8080dc084b42fc694fde40f3a220dacfec64736f6c63430008130033",
  "linkReferences": {},
  "deployedLinkReferences": {}
}